:100000000C9428010C9459010C9459010C94590139
:100010000C9459010C9459010C9459010C945901F8
:100020000C9459010C9459010C9459010C945901E8
:100030000C9459010C9459010C9459010C945901D8
:100040000C9459010C9459010C9459010C945901C8
:100050000C9459010C9459010C9459010C941703F8
:100060000C9459010C948B030C9461030C9459016A
:100070000C9459010C9459010C9459010C94590198
:100080000C9459010C9459010C9459010C94590188
:100090000C9459010C9459010C9459010C94590178
:1000A0000C9459010C9459010C9459010C94590168
:1000B0000C9459010C9459010C9459010C94590158
:1000C0000C9459010C9459010C9459010C94590148
:1000D0000C9459010C9459010C9459010C94590138
:1000E0000C9459010C94D3010C9430050C94E30149
:1000F0000C94CB010C94CF010C9487010C94B701A4
:100100000C941F020C94D9010C949E010C94A20132
:100110000C94A6010C94AD010C9433020C94AA012A
:100120000C948C010C9441020C94C5010C941002A7
:100130000C94DD010C9479020C94BD010C94B30174
:100140000C94C1010C94C602000021002400270079
:100150002A002D00300033000101000004010701D6
:100160000A0100002200250028002B002E0031008B
:10017000340002010000050108010B010505050519
:10018000070508080808020202020A0A080804040F
:10019000040401010101010101010303030303033D
:1001A0000303040707070C0C0C0C0C0C0C0C0202CC
:1001B000020206060606060606060B0B0B0B0B0BC9
:1001C0000B0B010210202008081020401020408056
:1001D000020102010804020101020408102040800B
:1001E0008040201008040201800402018040201099
:1001F00008040201080402010102040810204080E2
:10020000010204081020408000000A0B02090C0DB6
:100210000E080703040100000000000000000000B9
:1002200000000000000000000000000000000000CE
:10023000000000001211100000000000000000008B
:100240000000000000000000000000000000300579
:1002500011241FBECFEFD1E2DEBFCDBF00E00CBF47
:1002600012E0A0E0B2E0E2E1FBE000E00BBF02C080
:1002700007900D92A631B107D9F722E0A6E1B2E0CE
:1002800001C01D92AE3BB207E1F711E0C8E2D1E038
:1002900000E006C021970109802FFE010E947F0522
:1002A000C732D10780E00807A9F70E94C1030C9468
:1002B00087050C940000382FEFE0F2E08491E9EC20
:1002C000F1E02491E3E8F1E09491992309F435C039
:1002D000882311F181508231F8F4E82FF0E088276B
:1002E000EB58FE4F8F4F0C947F05A601AA018701A2
:1002F0009E01A2018C01AD01B301B701BD01C10195
:10030000C501CB01CF018C01D301D901DD01809161
:1003100080008F7780938000E92FF0E0EE0FFF1FC1
:10032000EE59FE4FA591B4918FB7F894EC9131112D
:1003300048C020952E232C938FBF08958091800074
:100340008F7DE8CF80918000877FE4CF84B58F7761
:1003500084BDE2CF84B58F7DFBCF8091B0008F77D5
:100360008093B000D9CF8091B0008F7DF9CF80917C
:1003700090008F7780939000CFCF809190008F7DF9
:10038000F9CF80919000877FF5CF8091A0008F7783
:100390008093A000C1CF8091A0008F7DF9CF809184
:1003A000A000877FF5CF809120018F778093200177
:1003B000B3CF809120018F7DF9CF80912001877F7D
:1003C000F5CF2E2BB8CFAF92BF92CF92DF92EF92A4
:1003D000FF920F931F93CF93DF936C017B018B01EF
:1003E000040F151FEB015E01AE18BF08C017D1073F
:1003F00059F06991D601ED91FC910190F081E02DC9
:10040000C6011995892B79F7C501DF91CF911F910D
:100410000F91FF90EF90DF90CF90BF90AF90089535
:10042000FC01538D448D252F30E0842F90E0821BFA
:10043000930B541710F0CF96089501970895FC017F
:10044000918D828D981761F0A28DAE0FBF2FB11DD7
:100450005D968C91928D9F5F9F73928F90E008952F
:100460008FEF9FEF0895FC01918D828D981731F0E9
:10047000828DE80FF11D858D90E008958FEF9FEF3D
:100480000895FC01918D228D892F90E0805C9F4F13
:10049000821B91098F739927089586E192E00E944B
:1004A000410221E0892B09F420E0822F0895FC010C
:1004B000A48DA80FB92FB11DA35ABF4F2C91848DC5
:1004C00090E001968F739927848FA689B7892C9322
:1004D000A089B1898C91837080648C93938D848D75
:1004E000981306C00288F389E02D80818F7D808378
:1004F0000895EF92FF920F931F93CF93DF93EC0138
:1005000081E0888F9B8D8C8D98131AC0E889F989BA
:10051000808185FF15C09FB7F894EE89FF896083BD
:10052000E889F98980818370806480839FBF81E03E
:1005300090E0DF91CF911F910F91FF90EF90089580
:10054000F62E0B8D10E00F5F1F4F0F731127E02E5B
:100550008C8D8E110CC00FB607FCFACFE889F98993
:10056000808185FFF5CFCE010E945702F1CFEB8D40
:10057000EC0FFD2FF11DE35AFF4FF0829FB7F89467
:100580000B8FEA89FB8980818062CFCFCF93DF9385
:10059000EC01888D8823B9F0AA89BB89E889F9899B
:1005A0008C9185FD03C0808186FD0DC00FB607FCD0
:1005B000F7CF8C9185FFF2CF808185FFEDCFCE0103
:1005C0000E945702E9CFDF91CF91089580E090E03B
:1005D000892B29F00E944D0281110E94000080E0C9
:1005E00090E0892B49F080E090E0892B29F00E946F
:1005F000000081110E94000080E090E0892B49F00A
:1006000080E090E0892B29F00E94000081110E9477
:10061000000080E090E0892B49F080E090E0892B99
:1006200029F00E94000081110C94000008951F928F
:100630000F920FB60F9211242F933F938F939F9396
:10064000AF93BF938091BA029091BB02A091BC027C
:10065000B091BD023091B90223E0230F2D3758F538
:100660000196A11DB11D2093B9028093BA02909307
:10067000BB02A093BC02B093BD028091B5029091E1
:10068000B602A091B702B091B8020196A11DB11DAA
:100690008093B5029093B602A093B702B093B802CC
:1006A000BF91AF919F918F913F912F910F900FBE6E
:1006B0000F901F90189526E8230F0296A11DB11DDB
:1006C000D2CF1F920F920FB60F9211240BB60F923A
:1006D0002F933F934F935F936F937F938F939F934A
:1006E000AF93BF93EF93FF9386E192E00E9457028E
:1006F000FF91EF91BF91AF919F918F917F916F91FA
:100700005F914F913F912F910F900BBE0F900FBEB5
:100710000F901F9018951F920F920FB60F921124F1
:100720000BB60F922F938F939F93EF93FF93E091CC
:100730002602F09127028081E0912C02F0912D0297
:1007400082FD1DC0908180912F028F5F8F73209159
:100750003002821741F0E0912F02F0E0EA5EFD4F97
:10076000958F80932F02FF91EF919F918F912F9101
:100770000F900BBE0F900FBE0F901F9018958081A9
:10078000F2CFCF93DF93CDB7DEB7A1970FB6F89432
:10079000DEBF0FBECDBF789484B5826084BD84B5C2
:1007A000816084BD85B5826085BD85B5816085BD6C
:1007B00080916E00816080936E0010928100809124
:1007C00081008260809381008091810081608093AC
:1007D0008100809180008160809380008091B100D1
:1007E00084608093B1008091B00081608093B000FC
:1007F000809191008260809391008091910081604E
:10080000809391008091900081608093900080910E
:10081000A10082608093A1008091A10081608093FB
:10082000A1008091A00081608093A00080912101AF
:100830008260809321018091210181608093210158
:100840008091200181608093200180917A008460F2
:1008500080937A0080917A00826080937A00809100
:100860007A00816080937A0080917A00806880931A
:100870007A001092C100E0912602F091270282E0F6
:100880008083E0912202F09123021082E091240201
:10089000F09125028FEC808310922E02E0912A02C3
:1008A000F0912B0286E08083E0912802F0912902EA
:1008B000808180618083E0912802F091290280810B
:1008C00088608083E0912802F0912902808180680D
:1008D0008083E0912802F091290280818F7D8083BE
:1008E000EBEFF1E02491E5EBF1E084918823C9F08E
:1008F00090E0880F991FFC01E85BFE4F45915491F1
:10090000FC01EE59FE4FA591B4919FB7F894FA01FE
:1009100080812095822380838C91E22FE823EC93C1
:100920009FBFE9ECF1E02491E3E8F1E084918823B2
:1009300099F090E0880F991FFC01E85BFE4FA591AC
:10094000B491FC01EE59FE4F859194918FB7F894C4
:10095000EC91E22BEC938FBF83E4B82E9AE0C92E82
:10096000D12CE12CF12C80917B00877F80937B0040
:10097000B0927C0080917A00806480937A008091AC
:100980007A0086FDFCCF90917800809179008927CC
:10099000982789279093B4028093B3022C01092EE3
:1009A000000C6608770897FF43C06DE286E192E08D
:1009B0000E94790222273327A90124193509460903
:1009C000570919A28E010F5D1F4FCA01B901A70176
:1009D00096010E945D05605DF80162938F0121150B
:1009E00031054105510589F70115110561F00190A7
:1009F0000020E9F73197AF01401B510BB80186E1A8
:100A000092E00E94E30142E050E062E172E086E1A0
:100A100092E00E94E3018091B3029091B402893C7C
:100A20009105E4F081E00E945B010E94E6029BCF09
:100A3000A301920119A28E010F5D1F4FCA01B901D6
:100A4000A70196010E945D05605DF80162938F0128
:100A5000211531054105510589F7C6CF80E0E3CF67
:100A6000E6E1F2E01382128288EE93E0A0E0B0E0CB
:100A700084839583A683B78384E092E09183808307
:100A800085EC90E09587848784EC90E09787868753
:100A900080EC90E0918B808B81EC90E0938B828B4B
:100AA00082EC90E0958B848B86EC90E0978B868B24
:100AB000118E128E138E148E0895A1E21A2EAA1B87
:100AC000BB1BFD010DC0AA1FBB1FEE1FFF1FA217FE
:100AD000B307E407F50720F0A21BB30BE40BF50BFB
:100AE000661F771F881F991F1A9469F76095709584
:100AF000809590959B01AC01BD01CF010895EE0F4B
:100B0000FF1F881F8BBF0790F691E02D1994F89472
:020B1000FFCF15
:100B1200000000007902E3011002C60241021F0236
:060B220033020D0A000081
:00000001FF
